:060000001AC0FECFFDCF87
:10000600FCCFFBCFFACFF9CFF8CFF7CFF6CFF5CFAE
:10001600F4CFF3CFF2CFF1CFF0CFEFCF0000000057
:1000260000000000000090010C0002002200000009
:10003600F894EE27ECBBE5BF8DE0A2E0ED938A9540
:10004600E9F780E8A0E6ED938A95E9F7EEE2F0E0BD
:1000560085919591009761F0A591B59105901590C0
:10006600BF01F00105900D920197E1F7FB01F0CF7A
:10007600E0E0E3BBE4BBE5BBEFEDEDBFC0E8AEC03F
:10008600AA93E881EF73E068E7B98BE18A95F1F707
:10009600369A349BFECF349AE4B1F5B12196089591
:1000A600FDD0A1E0CFD00D32E1E01E0748F0339439
:1000B600EAE0E31520F4EBE03E2E2224989A08C0ED
:1000C6002394EAE0E21520F4EBE02E2E33249898F0
:1000D600A2E0B8D00333E0E01E0748F05394EAE00C
:1000E600E51520F4EBE05E2E4424999A08C043946B
:1000F600EAE0E41520F4EBE04E2E55249998A3E0AF
:10010600A1D0A3D048F07394EAE0E71520F4EBE021
:100116007E2E66249A9A08C06394EAE0E61520F4D7
:10012600EBE06E2E77249A98A5E08CD08ED048F01E
:100136009394EAE0E91520F4EBE09E2E88249B9A3E
:1001460008C08394EAE0E81520F4EBE08E2E9924AB
:100156009B98A4E077D079D048F0B394EAE0EB1509
:1001660020F4EBE0BE2EAA249C9A08C0A394EAE0F1
:10017600EA1520F4EBE0AE2EBB249C989C9906C0B1
:100186009B9904C0999902C09A9B04C0C29ACC2438
:10019600DD2403C05ED008F0C298989B04C0C09AC4
:1001A600CC24DD2403C055D008F0C09852D078F492
:1001B600D601E2E3F0E06FD0309729F4C19B02C08C
:1001C600C19801C0C19AF60131966F0101C0C1986C
:1001D600AAE0B0E043D067D024960895E0E8E6BDF3
:1001E600E0E0E6BDEABBEBBBE7E0E7BBE0E0E8BB8F
:1001F600E0BFE3BFE2BFE6BFECBFEFBDEEBDEDBDC6
:10020600ECBDE5BDE4BDEBBDEABDE9BDE8BDE9BFBA
:10021600ECB9E5BFEBBFEDB9E0E8E8B9E0E0E1B97C
:10022600E1B9E0E8E7B9E3E8E6B9E0E0E3B9C19AA5
:10023600A8ECB0E013D0C198A8ECB0E00FD030DF46
:10024600FECFFFCF1DDF8F0108950533E0E01E07C7
:100256000895E0E9F1E0CE16DF060895109639F02C
:1002660080ED97E00197F1F7A8951197C9F70895E2
:100276000024112490E1AA0FBB1F001C111C0E1AAA
:100286001F0A18F40E0E1F1E01C0A1609A9599F759
:10029600FD01D0010895ECDFFD0108953A932A93FC
:1002A6001A930A9308953B812A811981088108953A
:00000001FF
