:0400000019C0FECF56
:10000400FDCFFCCFFBCFFACFF9CFF8CFF7CFF6CFA8
:10001400F5CFF4CFF3CFF2CFF1CFF0CFEFCF000095
:1000240000000000000000000A000200220000009E
:10003400F894EE27ECBBE5BF8DE0A2E0ED938A9542
:10004400E9F780E8A0E6ED938A95E9F7ECE2F0E0C1
:1000540085919591009761F0A591B59105901590C2
:10006400BF01F00105900D920197E1F7FB01F0CF7C
:10007400E0E0E3BBE4BBE5BBEFEDEDBFC0E89FC050
:10008400AA93E881EF73E7B98BE18A95F1F7369A81
:10009400349BFECF349AE4B1F5B121960895CED0C5
:1000A400A7E0EEDF9F01A1E0BAD048F43394EAE080
:1000B400E31520F4EBE03E2E2224989A08C0239402
:1000C400EAE0E21520F4EBE02E2E33249898A2E027
:1000D400A6D048F45394EAE0E51520F4EBE05E2E54
:1000E4004424999A08C04394EAE0E41520F4EBE030
:1000F4004E2E55249998A3E092D048F47394EAE0E4
:10010400E71520F4EBE07E2E66249A9A08C06394E7
:10011400EAE0E61520F4EBE06E2E77249A98A5E049
:100124007ED048F49394EAE0E91520F4EBE09E2EA7
:1001340088249B9A08C08394EAE0E81520F4EBE055
:100144008E2E99249B98A4E06AD048F4B394EAE0F4
:10015400EB1520F4EBE0BE2EAA249C9A08C0A394CD
:10016400EAE0EA1520F4EBE0AE2EBB249C989C99BF
:1001740006C09B9904C0999902C09A9B02C0C29A76
:1001840001C0C298989B02C0C09A01C0C0989C99B3
:1001940008C09B9906C0999904C09A9902C0989B7B
:1001A40007C0C19AA4E6B0E03FD0C198A4E602C05B
:1001B400C198A8ECB0E038D046D024960895E0E881
:1001C400E6BDE0E0E6BDEABBEBBBE3E0E7BBE0E0B5
:1001D400E8BBE0BFE3BFE2BFE6BFECBFEFBDEEBDEF
:1001E400EDBDECBDE5BDE4BDEBBDEABDE9BDE8BDDB
:1001F400E9BFECB9E5BFEBBFEDB9E0E8E8B9E0E091
:10020400E1B9E1B9E7B9E3E8E6B9E0E0E3B9C19AF5
:10021400A8ECB0E009D0C19842DFFECFFFCF30DFB9
:100224008F01201731070895109639F080ED97E07B
:100234000197F1F7A8951197C9F708953A932A936E
:100244001A930A9308953B812A811981088108959C
:00000001FF
